{
  "contractName": "RingMultisig",
  "abi": [
    {
      "constant": true,
      "inputs": [],
      "name": "threshold",
      "outputs": [
        {
          "name": "",
          "type": "uint256"
        }
      ],
      "payable": false,
      "stateMutability": "view",
      "type": "function"
    },
    {
      "constant": false,
      "inputs": [],
      "name": "renounceOwnership",
      "outputs": [],
      "payable": false,
      "stateMutability": "nonpayable",
      "type": "function"
    },
    {
      "constant": true,
      "inputs": [],
      "name": "owner",
      "outputs": [
        {
          "name": "",
          "type": "address"
        }
      ],
      "payable": false,
      "stateMutability": "view",
      "type": "function"
    },
    {
      "constant": false,
      "inputs": [
        {
          "name": "_newOwner",
          "type": "address"
        }
      ],
      "name": "transferOwnership",
      "outputs": [],
      "payable": false,
      "stateMutability": "nonpayable",
      "type": "function"
    },
    {
      "inputs": [
        {
          "name": "_publicKeysX",
          "type": "uint256[]"
        },
        {
          "name": "_publicKeysY",
          "type": "uint256[]"
        },
        {
          "name": "_threshold",
          "type": "uint256"
        },
        {
          "name": "_guid",
          "type": "bytes32"
        }
      ],
      "payable": false,
      "stateMutability": "nonpayable",
      "type": "constructor"
    },
    {
      "anonymous": false,
      "inputs": [
        {
          "indexed": true,
          "name": "previousOwner",
          "type": "address"
        }
      ],
      "name": "OwnershipRenounced",
      "type": "event"
    },
    {
      "anonymous": false,
      "inputs": [
        {
          "indexed": true,
          "name": "previousOwner",
          "type": "address"
        },
        {
          "indexed": true,
          "name": "newOwner",
          "type": "address"
        }
      ],
      "name": "OwnershipTransferred",
      "type": "event"
    },
    {
      "constant": false,
      "inputs": [
        {
          "name": "tag_x",
          "type": "uint256"
        }
      ],
      "name": "addTag",
      "outputs": [],
      "payable": false,
      "stateMutability": "nonpayable",
      "type": "function"
    },
    {
      "constant": true,
      "inputs": [],
      "name": "getTagsCount",
      "outputs": [
        {
          "name": "",
          "type": "uint256"
        }
      ],
      "payable": false,
      "stateMutability": "view",
      "type": "function"
    },
    {
      "constant": true,
      "inputs": [],
      "name": "getPublicKeysCount",
      "outputs": [
        {
          "name": "",
          "type": "uint256"
        }
      ],
      "payable": false,
      "stateMutability": "view",
      "type": "function"
    },
    {
      "constant": true,
      "inputs": [
        {
          "name": "i",
          "type": "uint256"
        }
      ],
      "name": "getPublicKey",
      "outputs": [
        {
          "name": "x",
          "type": "uint256"
        },
        {
          "name": "y",
          "type": "uint256"
        }
      ],
      "payable": false,
      "stateMutability": "view",
      "type": "function"
    },
    {
      "constant": true,
      "inputs": [],
      "name": "getMessage",
      "outputs": [
        {
          "name": "",
          "type": "bytes32"
        }
      ],
      "payable": false,
      "stateMutability": "view",
      "type": "function"
    },
    {
      "constant": true,
      "inputs": [
        {
          "name": "_tagPoint",
          "type": "uint256[2]"
        },
        {
          "name": "_ctlist",
          "type": "uint256[]"
        }
      ],
      "name": "isSignatureValid",
      "outputs": [
        {
          "name": "",
          "type": "bool"
        }
      ],
      "payable": false,
      "stateMutability": "view",
      "type": "function"
    }
  ],
  "bytecode": "0x60806040523480156200001157600080fd5b5060405162001bc238038062001bc2833981018060405281019080805182019291906020018051820192919060200180519060200190929190805190602001909291905050506000336000806101000a81548173ffffffffffffffffffffffffffffffffffffffff021916908373ffffffffffffffffffffffffffffffffffffffff16021790555083518551141515620000aa57600080fd5b82855110151515620000bb57600080fd5b82600181905550620000e982865160026200018e6401000000000262000cef17909291906401000000009004565b505b84518110156200015a576200014b85828151811015156200010857fe5b9060200190602002015185838151811015156200012157fe5b906020019060200201516002620001df6401000000000262000d3e17909291906401000000009004565b508080600101915050620000eb565b6200017a6002620003b9640100000000026200093e176401000000009004565b15156200018357fe5b505050505062000882565b600080836001900414151515620001a457600080fd5b60008460000160000154141515620001bb57600080fd5b82600190048460000160000181905550818460040181905550600190509392505050565b6000620001eb62000822565b6200020585620003b9640100000000026401000000009004565b1515156200021257600080fd5b6200022d8585620003d0640100000000026401000000009004565b1515156200023a57600080fd5b60408051908101604052808581526020018481525090506200027081620004386401000000000262000eb1176401000000009004565b15156200027c57600080fd5b60028560000160000154826000015183602001516040518084815260200183815260200182815260200193505050506020604051808303816000865af1158015620002cb573d6000803e3d6000fd5b5050506040513d6020811015620002e157600080fd5b810190808051906020019092919050505060019004856000016000018190555084600201819080600181540180825580915050906001820390600052602060002090600202016000909192909190915060008201518160000155602082015181600101555050506200036285620003b9640100000000026401000000009004565b15620003ad57620003918560000160000154600102620005186401000000000262000f8d176401000000009004565b8560000160008201518160000155602082015181600101559050505b60019150509392505050565b600081600401548260020180549050149050919050565b600080600090505b83600201805490508110156200042c57828460020182815481101515620003fb57fe5b90600052602060002090600202016000015414156200041e576001915062000431565b8080600101915050620003d8565b600091505b5092915050565b60008060007f30644e72e131a029b85045b68181585d97816a916871ca8d3c208c16d87cfd478015156200046857fe5b846000015185600001510991507f30644e72e131a029b85045b68181585d97816a916871ca8d3c208c16d87cfd47801515620004a057fe5b8460000151830990507f30644e72e131a029b85045b68181585d97816a916871ca8d3c208c16d87cfd47801515620004d457fe5b84602001518560200151097f30644e72e131a029b85045b68181585d97816a916871ca8d3c208c16d87cfd478015156200050a57fe5b600383081492505050919050565b6200052262000822565b6000806000809250600091507f30644e72e131a029b85045b68181585d2833e84879b9709143e1f593f000000185600190048115156200055e57fe5b0690505b600115620006165762000584816200061f640100000000026401000000009004565b80935081945050507f30644e72e131a029b85045b68181585d97816a916871ca8d3c208c16d87cfd47801515620005b757fe5b828309831415620005df57604080519081016040528082815260200183815250935062000617565b7f30644e72e131a029b85045b68181585d97816a916871ca8d3c208c16d87cfd478015156200060a57fe5b60018208905062000562565b5b505050919050565b6000806000807f30644e72e131a029b85045b68181585d97816a916871ca8d3c208c16d87cfd478015156200065057fe5b60037f30644e72e131a029b85045b68181585d97816a916871ca8d3c208c16d87cfd478015156200067d57fe5b877f30644e72e131a029b85045b68181585d97816a916871ca8d3c208c16d87cfd47801515620006a957fe5b898a09090891506200070c827f0c19139cb84c680a6e14116da060561765e05aa45a1c72a34f082305b61f3f527f30644e72e131a029b85045b68181585d97816a916871ca8d3c208c16d87cfd476200071b640100000000026401000000009004565b90508181935093505050915091565b600080620007286200083c565b620007326200085f565b60208160006006811015156200074457fe5b60200201818152505060208160016006811015156200075f57fe5b60200201818152505060208160026006811015156200077a57fe5b602002018181525050868160036006811015156200079457fe5b60200201818152505085816004600681101515620007ae57fe5b60200201818152505084816005600681101515620007c857fe5b60200201818152505060208260c08360056107d05a03fa92508260008114620007f157620007f3565bfe5b508215156200080157600080fd5b8160006001811015156200081157fe5b602002015193505050509392505050565b604080519081016040528060008152602001600081525090565b602060405190810160405280600190602082028038833980820191505090505090565b60c060405190810160405280600690602082028038833980820191505090505090565b61133080620008926000396000f3006080604052600436106100a3576000357c0100000000000000000000000000000000000000000000000000000000900463ffffffff1680623db8e3146100a857806342cde4e8146101555780635a8a2aa514610180578063715018a6146101ab57806375d2c1ce146101c25780638da5cb5b1461020a578063c0fda0ec14610261578063ccc47ec81461028c578063ce6d41de146102b9578063f2fde38b146102ec575b600080fd5b3480156100b457600080fd5b5061013b60048036038101908080604001906002806020026040519081016040528092919082600260200280828437820191505050505091929192908035906020019082018035906020019080806020026020016040519081016040528093929190818152602001838360200280828437820191505050505050919291929050505061032f565b604051808215151515815260200191505060405180910390f35b34801561016157600080fd5b5061016a610377565b6040518082815260200191505060405180910390f35b34801561018c57600080fd5b5061019561037d565b6040518082815260200191505060405180910390f35b3480156101b757600080fd5b506101c061038c565b005b3480156101ce57600080fd5b506101ed6004803603810190808035906020019092919050505061048e565b604051808381526020018281526020019250505060405180910390f35b34801561021657600080fd5b5061021f6104e0565b604051808273ffffffffffffffffffffffffffffffffffffffff1673ffffffffffffffffffffffffffffffffffffffff16815260200191505060405180910390f35b34801561026d57600080fd5b50610276610505565b6040518082815260200191505060405180910390f35b34801561029857600080fd5b506102b760048036038101908080359060200190929190505050610515565b005b3480156102c557600080fd5b506102ce610587565b60405180826000191660001916815260200191505060405180910390f35b3480156102f857600080fd5b5061032d600480360381019080803573ffffffffffffffffffffffffffffffffffffffff169060200190929190505050610598565b005b600061036f83600060028110151561034357fe5b602002015184600160028110151561035757fe5b60200201518460026105ff909392919063ffffffff16565b905092915050565b60015481565b60006002800180549050905090565b6000809054906101000a900473ffffffffffffffffffffffffffffffffffffffff1673ffffffffffffffffffffffffffffffffffffffff163373ffffffffffffffffffffffffffffffffffffffff161415156103e757600080fd5b6000809054906101000a900473ffffffffffffffffffffffffffffffffffffffff1673ffffffffffffffffffffffffffffffffffffffff167ff8df31144d9c2f0f6b59d69b8b98abd5459d07f2742c4df920b25aae33c6482060405160405180910390a260008060006101000a81548173ffffffffffffffffffffffffffffffffffffffff021916908373ffffffffffffffffffffffffffffffffffffffff160217905550565b60008060028001838154811015156104a257fe5b90600052602060002090600202016000015460028001848154811015156104c557fe5b90600052602060002090600202016001015491509150915091565b6000809054906101000a900473ffffffffffffffffffffffffffffffffffffffff1681565b6000600260030180549050905090565b6000809054906101000a900473ffffffffffffffffffffffffffffffffffffffff1673ffffffffffffffffffffffffffffffffffffffff163373ffffffffffffffffffffffffffffffffffffffff1614151561057057600080fd5b6105848160026107ea90919063ffffffff16565b50565b6000610593600261081c565b905090565b6000809054906101000a900473ffffffffffffffffffffffffffffffffffffffff1673ffffffffffffffffffffffffffffffffffffffff163373ffffffffffffffffffffffffffffffffffffffff161415156105f357600080fd5b6105fc81610844565b50565b6000806000806000806106118a61093e565b151561061c57600080fd5b6106268a8a610955565b15151561063257600080fd5b60028a600001600001548a8a6040518084815260200183815260200182815260200193505050506020604051808303816000865af1158015610678573d6000803e3d6000fd5b5050506040513d602081101561068d57600080fd5b810190808051906020019092919050505060019004945060009350600092505b89600201805490508310156107c3576106c46109b1565b87846002028151811015156106d557fe5b906020019060200201518115156106e857fe5b0691506106f36109b1565b876001856002020181518110151561070757fe5b9060200190602002015181151561071a57fe5b06905061079e85838360408051908101604052808e81526020018d8152508e600001604080519081016040529081600082015481526020016001820154815250508f6002018981548110151561076c57fe5b9060005260206000209060020201604080519081016040529081600082015481526020016001820154815250506109d9565b94506107a86109b1565b8015156107b157fe5b828508935082806001019350506106ad565b6107cb6109b1565b858115156107d557fe5b06945083851495505050505050949350505050565b816003018190806001815401808255809150509060018203906000526020600020016000909192909190915055505050565b60006108278261093e565b151561083257600080fd5b81600001600001546001029050919050565b600073ffffffffffffffffffffffffffffffffffffffff168173ffffffffffffffffffffffffffffffffffffffff161415151561088057600080fd5b8073ffffffffffffffffffffffffffffffffffffffff166000809054906101000a900473ffffffffffffffffffffffffffffffffffffffff1673ffffffffffffffffffffffffffffffffffffffff167f8be0079c531659141344cd1fd0a4f28419497f9722a3daafe3b4186f6b6457e060405160405180910390a3806000806101000a81548173ffffffffffffffffffffffffffffffffffffffff021916908373ffffffffffffffffffffffffffffffffffffffff16021790555050565b600081600401548260020180549050149050919050565b600080600090505b83600301805490508110156109a55782846003018281548110151561097e57fe5b9060005260206000200154141561099857600191506109aa565b808060010191505061095d565b600091505b5092915050565b60007f30644e72e131a029b85045b68181585d2833e84879b9709143e1f593f0000001905090565b60006109e3610c8f565b6109eb610c8f565b6109f3610c8f565b610a068986610af690919063ffffffff16565b9250610a2383610a158a610b90565b610bb090919063ffffffff16565b9150610a5c610a3b8a89610af690919063ffffffff16565b610a4e8a89610af690919063ffffffff16565b610bb090919063ffffffff16565b905060028a836000015184602001518460000151856020015160405180868152602001858152602001848152602001838152602001828152602001955050505050506020604051808303816000865af1158015610abd573d6000803e3d6000fd5b5050506040513d6020811015610ad257600080fd5b81019080805190602001909291905050506001900493505050509695505050505050565b610afe610c8f565b610b06610ca9565b60008460000151826000600381101515610b1c57fe5b6020020181815250508460200151826001600381101515610b3957fe5b60200201818152505083826002600381101515610b5257fe5b60200201818152505060408360608460076107d05a03fa90508060008114610b7957610b7b565bfe5b50801515610b8857600080fd5b505092915050565b610b98610c8f565b610ba9610ba3610c6b565b83610af6565b9050919050565b610bb8610c8f565b610bc0610ccc565b60008460000151826000600481101515610bd657fe5b6020020181815250508460200151826001600481101515610bf357fe5b6020020181815250508360000151826002600481101515610c1057fe5b6020020181815250508360200151826003600481101515610c2d57fe5b60200201818152505060408360808460066107d05a03fa90508060008114610c5457610c56565bfe5b50801515610c6357600080fd5b505092915050565b610c73610c8f565b6040805190810160405280600181526020016002815250905090565b604080519081016040528060008152602001600081525090565b606060405190810160405280600390602082028038833980820191505090505090565b608060405190810160405280600490602082028038833980820191505090505090565b600080836001900414151515610d0457600080fd5b60008460000160000154141515610d1a57600080fd5b82600190048460000160000181905550818460040181905550600190509392505050565b6000610d48610c8f565b610d518561093e565b151515610d5d57600080fd5b610d67858561107a565b151515610d7357600080fd5b6040805190810160405280858152602001848152509050610d9381610eb1565b1515610d9e57600080fd5b60028560000160000154826000015183602001516040518084815260200183815260200182815260200193505050506020604051808303816000865af1158015610dec573d6000803e3d6000fd5b5050506040513d6020811015610e0157600080fd5b81019080805190602001909291905050506001900485600001600001819055508460020181908060018154018082558091505090600182039060005260206000209060020201600090919290919091506000820151816000015560208201518160010155505050610e718561093e565b15610ea557610e898560000160000154600102610f8d565b8560000160008201518160000155602082015181600101559050505b60019150509392505050565b60008060007f30644e72e131a029b85045b68181585d97816a916871ca8d3c208c16d87cfd47801515610ee057fe5b846000015185600001510991507f30644e72e131a029b85045b68181585d97816a916871ca8d3c208c16d87cfd47801515610f1757fe5b8460000151830990507f30644e72e131a029b85045b68181585d97816a916871ca8d3c208c16d87cfd47801515610f4a57fe5b84602001518560200151097f30644e72e131a029b85045b68181585d97816a916871ca8d3c208c16d87cfd47801515610f7f57fe5b600383081492505050919050565b610f95610c8f565b6000806000809250600091507f30644e72e131a029b85045b68181585d2833e84879b9709143e1f593f00000018560019004811515610fd057fe5b0690505b60011561107157610fe4816110dd565b80935081945050507f30644e72e131a029b85045b68181585d97816a916871ca8d3c208c16d87cfd4780151561101657fe5b82830983141561103c576040805190810160405280828152602001838152509350611072565b7f30644e72e131a029b85045b68181585d97816a916871ca8d3c208c16d87cfd4780151561106657fe5b600182089050610fd4565b5b505050919050565b600080600090505b83600201805490508110156110d1578284600201828154811015156110a357fe5b90600052602060002090600202016000015414156110c457600191506110d6565b8080600101915050611082565b600091505b5092915050565b6000806000807f30644e72e131a029b85045b68181585d97816a916871ca8d3c208c16d87cfd4780151561110d57fe5b60037f30644e72e131a029b85045b68181585d97816a916871ca8d3c208c16d87cfd4780151561113957fe5b877f30644e72e131a029b85045b68181585d97816a916871ca8d3c208c16d87cfd4780151561116457fe5b898a09090891506111b6827f0c19139cb84c680a6e14116da060561765e05aa45a1c72a34f082305b61f3f527f30644e72e131a029b85045b68181585d97816a916871ca8d3c208c16d87cfd476111c5565b90508181935093505050915091565b6000806111d06112be565b6111d86112e1565b60208160006006811015156111e957fe5b602002018181525050602081600160068110151561120357fe5b602002018181525050602081600260068110151561121d57fe5b6020020181815250508681600360068110151561123657fe5b6020020181815250508581600460068110151561124f57fe5b6020020181815250508481600560068110151561126857fe5b60200201818152505060208260c08360056107d05a03fa9250826000811461128f57611291565bfe5b5082151561129e57600080fd5b8160006001811015156112ad57fe5b602002015193505050509392505050565b602060405190810160405280600190602082028038833980820191505090505090565b60c0604051908101604052806006906020820280388339808201915050905050905600a165627a7a723058209c2d20ce83bcd2e5d9d1df3db8af4b710b936a242a36960125a9a748da462c290029",
  "source": "pragma solidity ^0.4.24;\n\nimport \"openzeppelin-solidity/contracts/ownership/Ownable.sol\";\nimport \"mobius-truffle-mixbytes/contracts/LinkableRing.sol\";\n\ncontract RingMultisig is Ownable {\n    using LinkableRing for LinkableRing.Data;\n\n    constructor(\n        uint256[] _publicKeysX,\n        uint256[] _publicKeysY,\n        uint256 _threshold,\n        bytes32 _guid // some random bytes (unique)\n    ) public {\n        require(_publicKeysX.length == _publicKeysY.length);\n        require(_publicKeysX.length >= _threshold);\n\n        threshold = _threshold;\n\n        ringData.initialize(_guid, _publicKeysX.length);\n        for (uint i; i<_publicKeysX.length; i++) {\n            ringData.addParticipant(_publicKeysX[i], _publicKeysY[i]);\n        }\n        assert(ringData.isFull());\n    }\n\n    /************************** PROPERTIES **************************/\n\n    uint256 public threshold;\n    LinkableRing.Data ringData;\n\n    /************************** MODIFIERS **************************/\n\n    /**\n     * Modifier which restricts execution of function until `threshold` signatures will be send\n     */\n    modifier ringMultisigned(uint256[2] _tagPoint, uint256[] _ctlist) {\n        require(getTagsCount() < threshold);\n\n        require(isSignatureValid(_tagPoint, _ctlist));\n        addTag(_tagPoint[0]);\n\n        if(getTagsCount() >= threshold) {\n            _;\n        }\n    }\n\n    /************************** PUBLIC **************************/\n\n    function addTag(uint256 tag_x) public onlyOwner {\n        ringData.tagAdd(tag_x);\n    }\n\n\n    function getTagsCount() public view returns (uint256) {\n        return ringData.tags.length;\n    }\n\n    function getPublicKeysCount() public view returns (uint256) {\n        return ringData.pubkeys.length;\n    }\n\n    function getPublicKey(uint256 i) public view returns (uint256 x, uint256 y) {\n        return (ringData.pubkeys[i].X, ringData.pubkeys[i].Y);\n    }\n\n    function getMessage() public view returns (bytes32) {\n        return ringData.message();\n    }\n\n    function isSignatureValid(uint256[2] _tagPoint, uint256[] _ctlist) public view returns (bool) {\n        return ringData.isSignatureValid(_tagPoint[0], _tagPoint[1], _ctlist);\n    }\n\n}\n",
  "sourcePath": "/Users/sexydynamite/ring-multisig/contracts/RingMultisig.sol",
  "compiler": {
    "name": "solc",
    "version": "0.4.24+commit.e67f0147.Emscripten.clang"
  },
  "schemaVersion": "2.0.1",
  "updatedAt": "2020-02-05T13:27:30.329Z"
}