{
  "contractName": "Single",
  "abi": [
    {
      "constant": true,
      "inputs": [
        {
          "name": "_tagPoint",
          "type": "uint256[2]"
        },
        {
          "name": "_ctlist",
          "type": "uint256[]"
        }
      ],
      "name": "isSignatureValid",
      "outputs": [
        {
          "name": "",
          "type": "bool"
        }
      ],
      "payable": false,
      "stateMutability": "view",
      "type": "function"
    },
    {
      "constant": true,
      "inputs": [],
      "name": "deadline",
      "outputs": [
        {
          "name": "",
          "type": "uint256"
        }
      ],
      "payable": false,
      "stateMutability": "view",
      "type": "function"
    },
    {
      "constant": true,
      "inputs": [],
      "name": "threshold",
      "outputs": [
        {
          "name": "",
          "type": "uint256"
        }
      ],
      "payable": false,
      "stateMutability": "view",
      "type": "function"
    },
    {
      "constant": true,
      "inputs": [],
      "name": "getPublicKeysCount",
      "outputs": [
        {
          "name": "",
          "type": "uint256"
        }
      ],
      "payable": false,
      "stateMutability": "view",
      "type": "function"
    },
    {
      "constant": false,
      "inputs": [],
      "name": "renounceOwnership",
      "outputs": [],
      "payable": false,
      "stateMutability": "nonpayable",
      "type": "function"
    },
    {
      "constant": true,
      "inputs": [
        {
          "name": "i",
          "type": "uint256"
        }
      ],
      "name": "getPublicKey",
      "outputs": [
        {
          "name": "x",
          "type": "uint256"
        },
        {
          "name": "y",
          "type": "uint256"
        }
      ],
      "payable": false,
      "stateMutability": "view",
      "type": "function"
    },
    {
      "constant": true,
      "inputs": [],
      "name": "owner",
      "outputs": [
        {
          "name": "",
          "type": "address"
        }
      ],
      "payable": false,
      "stateMutability": "view",
      "type": "function"
    },
    {
      "constant": true,
      "inputs": [],
      "name": "judgmentMatter",
      "outputs": [
        {
          "name": "",
          "type": "string"
        }
      ],
      "payable": false,
      "stateMutability": "view",
      "type": "function"
    },
    {
      "constant": true,
      "inputs": [],
      "name": "getTagsCount",
      "outputs": [
        {
          "name": "",
          "type": "uint256"
        }
      ],
      "payable": false,
      "stateMutability": "view",
      "type": "function"
    },
    {
      "constant": false,
      "inputs": [
        {
          "name": "tag_x",
          "type": "uint256"
        }
      ],
      "name": "addTag",
      "outputs": [],
      "payable": false,
      "stateMutability": "nonpayable",
      "type": "function"
    },
    {
      "constant": true,
      "inputs": [],
      "name": "getMessage",
      "outputs": [
        {
          "name": "",
          "type": "bytes32"
        }
      ],
      "payable": false,
      "stateMutability": "view",
      "type": "function"
    },
    {
      "constant": false,
      "inputs": [
        {
          "name": "_newOwner",
          "type": "address"
        }
      ],
      "name": "transferOwnership",
      "outputs": [],
      "payable": false,
      "stateMutability": "nonpayable",
      "type": "function"
    },
    {
      "constant": true,
      "inputs": [],
      "name": "isGuilty",
      "outputs": [
        {
          "name": "",
          "type": "bool"
        }
      ],
      "payable": false,
      "stateMutability": "view",
      "type": "function"
    },
    {
      "inputs": [
        {
          "name": "_judgmentMatter",
          "type": "string"
        },
        {
          "name": "_publicKeysX",
          "type": "uint256[]"
        },
        {
          "name": "_publicKeysY",
          "type": "uint256[]"
        },
        {
          "name": "_juryThreshold",
          "type": "uint256"
        },
        {
          "name": "_deadline",
          "type": "uint256"
        }
      ],
      "payable": false,
      "stateMutability": "nonpayable",
      "type": "constructor"
    },
    {
      "anonymous": false,
      "inputs": [
        {
          "indexed": true,
          "name": "previousOwner",
          "type": "address"
        }
      ],
      "name": "OwnershipRenounced",
      "type": "event"
    },
    {
      "anonymous": false,
      "inputs": [
        {
          "indexed": true,
          "name": "previousOwner",
          "type": "address"
        },
        {
          "indexed": true,
          "name": "newOwner",
          "type": "address"
        }
      ],
      "name": "OwnershipTransferred",
      "type": "event"
    },
    {
      "constant": true,
      "inputs": [],
      "name": "getJudgment",
      "outputs": [
        {
          "name": "_judgmentMatter",
          "type": "string"
        },
        {
          "name": "_publicKeysX",
          "type": "uint256[]"
        },
        {
          "name": "_publicKeysY",
          "type": "uint256[]"
        },
        {
          "name": "_juryThreshold",
          "type": "uint256"
        },
        {
          "name": "_isGuilty",
          "type": "bool"
        },
        {
          "name": "_alreadyMadeDecisions",
          "type": "uint256"
        },
        {
          "name": "_message",
          "type": "bytes32"
        }
      ],
      "payable": false,
      "stateMutability": "view",
      "type": "function"
    },
    {
      "constant": false,
      "inputs": [
        {
          "name": "_tagPoint",
          "type": "uint256[2]"
        },
        {
          "name": "ctlist",
          "type": "uint256[]"
        }
      ],
      "name": "guilty",
      "outputs": [],
      "payable": false,
      "stateMutability": "nonpayable",
      "type": "function"
    }
  ],
  "bytecode": "0x60806040523480156200001157600080fd5b506040516200231b3803806200231b83398101806040528101908080518201929190602001805182019291906020018051820192919060200180519060200190929190805190602001909291905050508383836200007e88620001da640100000000026401000000009004565b6000336000806101000a81548173ffffffffffffffffffffffffffffffffffffffff021916908373ffffffffffffffffffffffffffffffffffffffff16021790555083518551141515620000d157600080fd5b82855110151515620000e257600080fd5b826001819055506200011082865160026200024864010000000002620012df17909291906401000000009004565b505b845181101562000181576200017285828151811015156200012f57fe5b9060200190602002015185838151811015156200014857fe5b90602001906020020151600262000299640100000000026200132e17909291906401000000009004565b50808060010191505062000112565b620001a16002620004736401000000000262000f2e176401000000009004565b1515620001aa57fe5b50505050508460099080519060200190620001c7929190620008dc565b50806008819055505050505050620009eb565b6000816040518082805190602001908083835b602083101515620002145780518252602082019150602081019050602083039250620001ed565b6001836020036101000a03801982511681845116808217855250505050505090500191505060405180910390209050919050565b6000808360019004141515156200025e57600080fd5b600084600001600001541415156200027557600080fd5b82600190048460000160000181905550818460040181905550600190509392505050565b6000620002a562000963565b620002bf8562000473640100000000026401000000009004565b151515620002cc57600080fd5b620002e785856200048a640100000000026401000000009004565b151515620002f457600080fd5b60408051908101604052808581526020018481525090506200032a81620004f264010000000002620014a1176401000000009004565b15156200033657600080fd5b60028560000160000154826000015183602001516040518084815260200183815260200182815260200193505050506020604051808303816000865af115801562000385573d6000803e3d6000fd5b5050506040513d60208110156200039b57600080fd5b810190808051906020019092919050505060019004856000016000018190555084600201819080600181540180825580915050906001820390600052602060002090600202016000909192909190915060008201518160000155602082015181600101555050506200041c8562000473640100000000026401000000009004565b1562000467576200044b8560000160000154600102620005d2640100000000026200157d176401000000009004565b8560000160008201518160000155602082015181600101559050505b60019150509392505050565b600081600401548260020180549050149050919050565b600080600090505b8360020180549050811015620004e657828460020182815481101515620004b557fe5b9060005260206000209060020201600001541415620004d85760019150620004eb565b808060010191505062000492565b600091505b5092915050565b60008060007f30644e72e131a029b85045b68181585d97816a916871ca8d3c208c16d87cfd478015156200052257fe5b846000015185600001510991507f30644e72e131a029b85045b68181585d97816a916871ca8d3c208c16d87cfd478015156200055a57fe5b8460000151830990507f30644e72e131a029b85045b68181585d97816a916871ca8d3c208c16d87cfd478015156200058e57fe5b84602001518560200151097f30644e72e131a029b85045b68181585d97816a916871ca8d3c208c16d87cfd47801515620005c457fe5b600383081492505050919050565b620005dc62000963565b6000806000809250600091507f30644e72e131a029b85045b68181585d2833e84879b9709143e1f593f000000185600190048115156200061857fe5b0690505b600115620006d0576200063e81620006d9640100000000026401000000009004565b80935081945050507f30644e72e131a029b85045b68181585d97816a916871ca8d3c208c16d87cfd478015156200067157fe5b82830983141562000699576040805190810160405280828152602001838152509350620006d1565b7f30644e72e131a029b85045b68181585d97816a916871ca8d3c208c16d87cfd47801515620006c457fe5b6001820890506200061c565b5b505050919050565b6000806000807f30644e72e131a029b85045b68181585d97816a916871ca8d3c208c16d87cfd478015156200070a57fe5b60037f30644e72e131a029b85045b68181585d97816a916871ca8d3c208c16d87cfd478015156200073757fe5b877f30644e72e131a029b85045b68181585d97816a916871ca8d3c208c16d87cfd478015156200076357fe5b898a0909089150620007c6827f0c19139cb84c680a6e14116da060561765e05aa45a1c72a34f082305b61f3f527f30644e72e131a029b85045b68181585d97816a916871ca8d3c208c16d87cfd47620007d5640100000000026401000000009004565b90508181935093505050915091565b600080620007e26200097d565b620007ec620009a0565b6020816000600681101515620007fe57fe5b60200201818152505060208160016006811015156200081957fe5b60200201818152505060208160026006811015156200083457fe5b602002018181525050868160036006811015156200084e57fe5b602002018181525050858160046006811015156200086857fe5b602002018181525050848160056006811015156200088257fe5b60200201818152505060208260c08360056107d05a03fa92508260008114620008ab57620008ad565bfe5b50821515620008bb57600080fd5b816000600181101515620008cb57fe5b602002015193505050509392505050565b828054600181600116156101000203166002900490600052602060002090601f016020900481019282601f106200091f57805160ff191683800117855562000950565b8280016001018555821562000950579182015b828111156200094f57825182559160200191906001019062000932565b5b5090506200095f9190620009c3565b5090565b604080519081016040528060008152602001600081525090565b602060405190810160405280600190602082028038833980820191505090505090565b60c060405190810160405280600690602082028038833980820191505090505090565b620009e891905b80821115620009e4576000816000905550600101620009ca565b5090565b90565b61192080620009fb6000396000f3006080604052600436106100da576000357c0100000000000000000000000000000000000000000000000000000000900463ffffffff1680623db8e3146100df57806329dcb0cf1461018c5780633b9e9a01146101b757806342cde4e81461024c5780635a8a2aa514610277578063715018a6146102a257806375d2c1ce146102b9578063840af40a146103015780638da5cb5b14610449578063a9e6d73b146104a0578063c0fda0ec14610530578063ccc47ec81461055b578063ce6d41de14610588578063f2fde38b146105bb578063fe03ae38146105fe575b600080fd5b3480156100eb57600080fd5b5061017260048036038101908080604001906002806020026040519081016040528092919082600260200280828437820191505050505091929192908035906020019082018035906020019080806020026020016040519081016040528093929190818152602001838360200280828437820191505050505050919291929050505061062d565b604051808215151515815260200191505060405180910390f35b34801561019857600080fd5b506101a1610675565b6040518082815260200191505060405180910390f35b3480156101c357600080fd5b5061024a60048036038101908080604001906002806020026040519081016040528092919082600260200280828437820191505050505091929192908035906020019082018035906020019080806020026020016040519081016040528093929190818152602001838360200280828437820191505050505050919291929050505061067b565b005b34801561025857600080fd5b50610261610709565b6040518082815260200191505060405180910390f35b34801561028357600080fd5b5061028c61070f565b6040518082815260200191505060405180910390f35b3480156102ae57600080fd5b506102b761071e565b005b3480156102c557600080fd5b506102e460048036038101908080359060200190929190505050610820565b604051808381526020018281526020019250505060405180910390f35b34801561030d57600080fd5b50610316610872565b6040518080602001806020018060200188815260200187151515158152602001868152602001856000191660001916815260200184810384528b818151815260200191508051906020019080838360005b83811015610382578082015181840152602081019050610367565b50505050905090810190601f1680156103af5780820380516001836020036101000a031916815260200191505b5084810383528a818151815260200191508051906020019060200280838360005b838110156103eb5780820151818401526020810190506103d0565b50505050905001848103825289818151815260200191508051906020019060200280838360005b8381101561042d578082015181840152602081019050610412565b505050509050019a505050505050505050505060405180910390f35b34801561045557600080fd5b5061045e610a1f565b604051808273ffffffffffffffffffffffffffffffffffffffff1673ffffffffffffffffffffffffffffffffffffffff16815260200191505060405180910390f35b3480156104ac57600080fd5b506104b5610a44565b6040518080602001828103825283818151815260200191508051906020019080838360005b838110156104f55780820151818401526020810190506104da565b50505050905090810190601f1680156105225780820380516001836020036101000a031916815260200191505b509250505060405180910390f35b34801561053c57600080fd5b50610545610ae2565b6040518082815260200191505060405180910390f35b34801561056757600080fd5b5061058660048036038101908080359060200190929190505050610af2565b005b34801561059457600080fd5b5061059d610b64565b60405180826000191660001916815260200191505060405180910390f35b3480156105c757600080fd5b506105fc600480360381019080803573ffffffffffffffffffffffffffffffffffffffff169060200190929190505050610b75565b005b34801561060a57600080fd5b50610613610bdc565b604051808215151515815260200191505060405180910390f35b600061066d83600060028110151561064157fe5b602002015184600160028110151561065557fe5b6020020151846002610bef909392919063ffffffff16565b905092915050565b60085481565b4260085411151561068b57600080fd5b8181600154610698610ae2565b1015156106a457600080fd5b6106ae828261062d565b15156106b957600080fd5b6106d58260006002811015156106cb57fe5b6020020151610af2565b6001546106e0610ae2565b101515610703576001600760006101000a81548160ff0219169083151502179055505b50505050565b60015481565b60006002800180549050905090565b6000809054906101000a900473ffffffffffffffffffffffffffffffffffffffff1673ffffffffffffffffffffffffffffffffffffffff163373ffffffffffffffffffffffffffffffffffffffff1614151561077957600080fd5b6000809054906101000a900473ffffffffffffffffffffffffffffffffffffffff1673ffffffffffffffffffffffffffffffffffffffff167ff8df31144d9c2f0f6b59d69b8b98abd5459d07f2742c4df920b25aae33c6482060405160405180910390a260008060006101000a81548173ffffffffffffffffffffffffffffffffffffffff021916908373ffffffffffffffffffffffffffffffffffffffff160217905550565b600080600280018381548110151561083457fe5b906000526020600020906002020160000154600280018481548110151561085757fe5b90600052602060002090600202016001015491509150915091565b6060806060600080600080600060098054600181600116156101000203166002900480601f0160208091040260200160405190810160405280929190818152602001828054600181600116156101000203166002900480156109155780601f106108ea57610100808354040283529160200191610915565b820191906000526020600020905b8154815290600101906020018083116108f857829003601f168201915b5050505050975061092461070f565b6040519080825280602002602001820160405280156109525781602001602082028038833980820191505090505b50965061095d61070f565b60405190808252806020026020018201604052801561098b5781602001602082028038833980820191505090505b509550600090505b86518110156109ea576109a581610820565b88838151811015156109b357fe5b90602001906020020188848151811015156109ca57fe5b906020019060200201828152508281525050508080600101915050610993565b6001549450600760009054906101000a900460ff169350610a09610ae2565b9250610a13610b64565b91505090919293949596565b6000809054906101000a900473ffffffffffffffffffffffffffffffffffffffff1681565b60098054600181600116156101000203166002900480601f016020809104026020016040519081016040528092919081815260200182805460018160011615610100020316600290048015610ada5780601f10610aaf57610100808354040283529160200191610ada565b820191906000526020600020905b815481529060010190602001808311610abd57829003601f168201915b505050505081565b6000600260030180549050905090565b6000809054906101000a900473ffffffffffffffffffffffffffffffffffffffff1673ffffffffffffffffffffffffffffffffffffffff163373ffffffffffffffffffffffffffffffffffffffff16141515610b4d57600080fd5b610b61816002610dda90919063ffffffff16565b50565b6000610b706002610e0c565b905090565b6000809054906101000a900473ffffffffffffffffffffffffffffffffffffffff1673ffffffffffffffffffffffffffffffffffffffff163373ffffffffffffffffffffffffffffffffffffffff16141515610bd057600080fd5b610bd981610e34565b50565b600760009054906101000a900460ff1681565b600080600080600080610c018a610f2e565b1515610c0c57600080fd5b610c168a8a610f45565b151515610c2257600080fd5b60028a600001600001548a8a6040518084815260200183815260200182815260200193505050506020604051808303816000865af1158015610c68573d6000803e3d6000fd5b5050506040513d6020811015610c7d57600080fd5b810190808051906020019092919050505060019004945060009350600092505b8960020180549050831015610db357610cb4610fa1565b8784600202815181101515610cc557fe5b90602001906020020151811515610cd857fe5b069150610ce3610fa1565b8760018560020201815181101515610cf757fe5b90602001906020020151811515610d0a57fe5b069050610d8e85838360408051908101604052808e81526020018d8152508e600001604080519081016040529081600082015481526020016001820154815250508f60020189815481101515610d5c57fe5b906000526020600020906002020160408051908101604052908160008201548152602001600182015481525050610fc9565b9450610d98610fa1565b801515610da157fe5b82850893508280600101935050610c9d565b610dbb610fa1565b85811515610dc557fe5b06945083851495505050505050949350505050565b816003018190806001815401808255809150509060018203906000526020600020016000909192909190915055505050565b6000610e1782610f2e565b1515610e2257600080fd5b81600001600001546001029050919050565b600073ffffffffffffffffffffffffffffffffffffffff168173ffffffffffffffffffffffffffffffffffffffff1614151515610e7057600080fd5b8073ffffffffffffffffffffffffffffffffffffffff166000809054906101000a900473ffffffffffffffffffffffffffffffffffffffff1673ffffffffffffffffffffffffffffffffffffffff167f8be0079c531659141344cd1fd0a4f28419497f9722a3daafe3b4186f6b6457e060405160405180910390a3806000806101000a81548173ffffffffffffffffffffffffffffffffffffffff021916908373ffffffffffffffffffffffffffffffffffffffff16021790555050565b600081600401548260020180549050149050919050565b600080600090505b8360030180549050811015610f9557828460030182815481101515610f6e57fe5b90600052602060002001541415610f885760019150610f9a565b8080600101915050610f4d565b600091505b5092915050565b60007f30644e72e131a029b85045b68181585d2833e84879b9709143e1f593f0000001905090565b6000610fd361127f565b610fdb61127f565b610fe361127f565b610ff689866110e690919063ffffffff16565b9250611013836110058a611180565b6111a090919063ffffffff16565b915061104c61102b8a896110e690919063ffffffff16565b61103e8a896110e690919063ffffffff16565b6111a090919063ffffffff16565b905060028a836000015184602001518460000151856020015160405180868152602001858152602001848152602001838152602001828152602001955050505050506020604051808303816000865af11580156110ad573d6000803e3d6000fd5b5050506040513d60208110156110c257600080fd5b81019080805190602001909291905050506001900493505050509695505050505050565b6110ee61127f565b6110f6611299565b6000846000015182600060038110151561110c57fe5b602002018181525050846020015182600160038110151561112957fe5b6020020181815250508382600260038110151561114257fe5b60200201818152505060408360608460076107d05a03fa905080600081146111695761116b565bfe5b5080151561117857600080fd5b505092915050565b61118861127f565b61119961119361125b565b836110e6565b9050919050565b6111a861127f565b6111b06112bc565b600084600001518260006004811015156111c657fe5b60200201818152505084602001518260016004811015156111e357fe5b602002018181525050836000015182600260048110151561120057fe5b602002018181525050836020015182600360048110151561121d57fe5b60200201818152505060408360808460066107d05a03fa9050806000811461124457611246565bfe5b5080151561125357600080fd5b505092915050565b61126361127f565b6040805190810160405280600181526020016002815250905090565b604080519081016040528060008152602001600081525090565b606060405190810160405280600390602082028038833980820191505090505090565b608060405190810160405280600490602082028038833980820191505090505090565b6000808360019004141515156112f457600080fd5b6000846000016000015414151561130a57600080fd5b82600190048460000160000181905550818460040181905550600190509392505050565b600061133861127f565b61134185610f2e565b15151561134d57600080fd5b611357858561166a565b15151561136357600080fd5b6040805190810160405280858152602001848152509050611383816114a1565b151561138e57600080fd5b60028560000160000154826000015183602001516040518084815260200183815260200182815260200193505050506020604051808303816000865af11580156113dc573d6000803e3d6000fd5b5050506040513d60208110156113f157600080fd5b8101908080519060200190929190505050600190048560000160000181905550846002018190806001815401808255809150509060018203906000526020600020906002020160009091929091909150600082015181600001556020820151816001015550505061146185610f2e565b1561149557611479856000016000015460010261157d565b8560000160008201518160000155602082015181600101559050505b60019150509392505050565b60008060007f30644e72e131a029b85045b68181585d97816a916871ca8d3c208c16d87cfd478015156114d057fe5b846000015185600001510991507f30644e72e131a029b85045b68181585d97816a916871ca8d3c208c16d87cfd4780151561150757fe5b8460000151830990507f30644e72e131a029b85045b68181585d97816a916871ca8d3c208c16d87cfd4780151561153a57fe5b84602001518560200151097f30644e72e131a029b85045b68181585d97816a916871ca8d3c208c16d87cfd4780151561156f57fe5b600383081492505050919050565b61158561127f565b6000806000809250600091507f30644e72e131a029b85045b68181585d2833e84879b9709143e1f593f000000185600190048115156115c057fe5b0690505b600115611661576115d4816116cd565b80935081945050507f30644e72e131a029b85045b68181585d97816a916871ca8d3c208c16d87cfd4780151561160657fe5b82830983141561162c576040805190810160405280828152602001838152509350611662565b7f30644e72e131a029b85045b68181585d97816a916871ca8d3c208c16d87cfd4780151561165657fe5b6001820890506115c4565b5b505050919050565b600080600090505b83600201805490508110156116c15782846002018281548110151561169357fe5b90600052602060002090600202016000015414156116b457600191506116c6565b8080600101915050611672565b600091505b5092915050565b6000806000807f30644e72e131a029b85045b68181585d97816a916871ca8d3c208c16d87cfd478015156116fd57fe5b60037f30644e72e131a029b85045b68181585d97816a916871ca8d3c208c16d87cfd4780151561172957fe5b877f30644e72e131a029b85045b68181585d97816a916871ca8d3c208c16d87cfd4780151561175457fe5b898a09090891506117a6827f0c19139cb84c680a6e14116da060561765e05aa45a1c72a34f082305b61f3f527f30644e72e131a029b85045b68181585d97816a916871ca8d3c208c16d87cfd476117b5565b90508181935093505050915091565b6000806117c06118ae565b6117c86118d1565b60208160006006811015156117d957fe5b60200201818152505060208160016006811015156117f357fe5b602002018181525050602081600260068110151561180d57fe5b6020020181815250508681600360068110151561182657fe5b6020020181815250508581600460068110151561183f57fe5b6020020181815250508481600560068110151561185857fe5b60200201818152505060208260c08360056107d05a03fa9250826000811461187f57611881565bfe5b5082151561188e57600080fd5b81600060018110151561189d57fe5b602002015193505050509392505050565b602060405190810160405280600190602082028038833980820191505090505090565b60c0604051908101604052806006906020820280388339808201915050905050905600a165627a7a7230582083c3bbfaae43b0900fbf8751afed71aa817dce683c7b9d33d512bd5dfcf814bf0029",
  "source": "pragma solidity ^0.4.24;\n\nimport \"openzeppelin-solidity/contracts/ownership/Ownable.sol\";\nimport \"../RingMultisigned.sol\";\nimport \"../RingMultisig.sol\";\n\n\n/**\n * Example of RingMultisig usage with one-time contract\n *\n */\ncontract Single is RingMultisig {\n\n    constructor(\n        string _judgmentMatter,\n        uint256[] _publicKeysX,\n        uint256[] _publicKeysY,\n        uint256 _juryThreshold,\n        uint256 _deadline\n    )\n        public\n        RingMultisig(_publicKeysX, _publicKeysY, _juryThreshold, hash(_judgmentMatter))\n    {\n        judgmentMatter = _judgmentMatter;\n        deadline = _deadline;\n    }\n\n    /************************** PROPERTIES **************************/\n\n    bool public isGuilty;\n    uint256 public deadline;\n    string public judgmentMatter;\n\n    /************************** MODIFIERS **************************/\n\n    modifier beforeDeadline() {\n        require(deadline > now);\n        _;\n    }\n\n    /************************** EXTERNAL **************************/\n\n    function getJudgment()\n        external\n        view\n        returns (\n            string _judgmentMatter,\n            uint256[] _publicKeysX,\n            uint256[] _publicKeysY,\n            uint256 _juryThreshold,\n            bool _isGuilty,\n            uint256 _alreadyMadeDecisions,\n            bytes32 _message //unique hash used to create ring signature\n        )\n    {\n        _judgmentMatter = judgmentMatter;\n\n        _publicKeysX = new uint256[](getPublicKeysCount());\n        _publicKeysY = new uint256[](getPublicKeysCount());\n        for (uint i=0; i<_publicKeysX.length; i++) {\n            (_publicKeysX[i], _publicKeysY[i]) = getPublicKey(i);\n        }\n        _juryThreshold = threshold;\n        _isGuilty = isGuilty;\n        _alreadyMadeDecisions = getTagsCount();\n        _message = getMessage();\n    }\n\n    /************************** PUBLIC **************************/\n\n    /**\n     * Jury \"vote\" by this method. `ringMultisigned` checks signature correctness and\n     * runs method after threshold reached\n     */\n    function guilty(uint256[2] _tagPoint, uint256[] ctlist)\n        public\n        beforeDeadline()\n        ringMultisigned(\n            _tagPoint, ctlist\n        )\n    {\n        isGuilty = true;\n    }\n\n\n    /************************** INTERNAL **************************/\n\n\n    function hash(string _str) internal pure returns (bytes32) {\n        return keccak256(\n            bytes(_str)\n        );\n    }\n}\n",
  "sourcePath": "/Users/sexydynamite/ring-multisig/contracts/usage_examples/Single.sol",
  "compiler": {
    "name": "solc",
    "version": "0.4.24+commit.e67f0147.Emscripten.clang"
  },
  "schemaVersion": "2.0.1",
  "updatedAt": "2020-02-05T13:27:30.331Z"
}